{
  "contractName": "Exchange",
  "abi": [
    {
      "inputs": [
        {
          "internalType": "address",
          "name": "primeAddress",
          "type": "address"
        }
      ],
      "stateMutability": "nonpayable",
      "type": "constructor"
    },
    {
      "inputs": [],
      "name": "getPrimeAddress",
      "outputs": [
        {
          "internalType": "address",
          "name": "",
          "type": "address"
        }
      ],
      "stateMutability": "view",
      "type": "function",
      "constant": true
    },
    {
      "inputs": [
        {
          "internalType": "uint256",
          "name": "_tokenId",
          "type": "uint256"
        },
        {
          "internalType": "uint256",
          "name": "askPrice",
          "type": "uint256"
        }
      ],
      "name": "order",
      "outputs": [
        {
          "internalType": "bool",
          "name": "",
          "type": "bool"
        }
      ],
      "stateMutability": "nonpayable",
      "type": "function"
    }
  ],
  "bytecode": "0x608060405234801561001057600080fd5b5060405161024a38038061024a8339818101604052602081101561003357600080fd5b8101908080519060200190929190505050806000806101000a81548173ffffffffffffffffffffffffffffffffffffffff021916908373ffffffffffffffffffffffffffffffffffffffff160217905550506101b6806100946000396000f3fe608060405234801561001057600080fd5b50600436106100365760003560e01c8063323e64a21461003b57806333863ed914610085575b600080fd5b6100436100d5565b604051808273ffffffffffffffffffffffffffffffffffffffff1673ffffffffffffffffffffffffffffffffffffffff16815260200191505060405180910390f35b6100bb6004803603604081101561009b57600080fd5b8101908080359060200190929190803590602001909291905050506100fe565b604051808215151515815260200191505060405180910390f35b60008060009054906101000a900473ffffffffffffffffffffffffffffffffffffffff16905090565b600060018311610176576040517f08c379a00000000000000000000000000000000000000000000000000000000081526004018080602001828103825260138152602001807f546f6b656e204944206d7573742065786973740000000000000000000000000081525060200191505060405180910390fd5b600190509291505056fea2646970667358221220804bb65121d110f554bd3c1600645088a1601b4893baba57331022dc6437c3ec64736f6c63430006020033",
  "source": "pragma solidity ^0.6.2;\r\n\r\n/**\r\n * @title   DFCP's Exchange Contract\r\n * @notice  A Decentralized Exchange to manage the buying and selling\r\n            of Prime Option tokens.\r\n * @author  Decentralized Financial Crafting Protocol\r\n */\r\n\r\n\r\nimport \"@openzeppelin/contracts/math/SafeMath.sol\";\r\n\r\n\r\nabstract contract IPrime {\r\n    function createPrime(uint256 _xis, address _yak, uint256 _zed, address _wax, uint256 _pow, address _gem) external virtual returns (bool);\r\n    function exercise(uint256 _tokenId) external virtual returns (bool);\r\n    function close(uint256 _collateralId, uint256 _burnId) external virtual returns (bool);\r\n    function withdraw(uint256 _amount, address _asset) public virtual returns (bool);\r\n}\r\n\r\n\r\ncontract Exchange {\r\n    using SafeMath for uint256;\r\n\r\n    address private _primeAddress;\r\n\r\n    constructor(address primeAddress) public {\r\n        _primeAddress = primeAddress;\r\n    }\r\n\r\n    function getPrimeAddress() public view returns (address) {\r\n        return _primeAddress;\r\n    }\r\n\r\n    function order(uint256 _tokenId, uint256 askPrice) public returns (bool) {\r\n        require(_tokenId > 1, 'Token ID must exist');\r\n        return true;\r\n    }\r\n\r\n}",
  "sourcePath": "C:\\Users\\alexa\\OneDrive\\Documents\\Master\\Blockchain\\Projects\\carbon\\contracts\\Exchange.sol",
  "compiler": {
    "name": "solc",
    "version": "0.6.2+commit.bacdbe57.Emscripten.clang"
  },
  "schemaVersion": "3.0.23",
  "updatedAt": "2020-03-19T17:46:05.021Z",
  "networkType": "ethereum",
  "devdoc": {
    "methods": {}
  },
  "userdoc": {
    "methods": {}
  }
}